{
  "contractName": "VaccinationList",
  "abi": [
    {
      "constant": true,
      "inputs": [],
      "name": "vaccinCount",
      "outputs": [
        {
          "internalType": "uint256",
          "name": "",
          "type": "uint256"
        }
      ],
      "payable": false,
      "stateMutability": "view",
      "type": "function"
    }
  ],
  "bytecode": "0x608060405260008055348015601357600080fd5b506084806100226000396000f3fe6080604052348015600f57600080fd5b506004361060285760003560e01c8063dc2fe77c14602d575b600080fd5b60336049565b6040518082815260200191505060405180910390f35b6000548156fea265627a7a72315820c2e11763aaaaf5a0077e11ae773010be22a759cc2c8cfa1d08612c81af6885b564736f6c634300050c0032",
  "source": "pragma solidity ^0.5.0;\r\n\r\ncontract VaccinationList{\r\n    uint public vaccinCount=0;\r\n}",
  "sourcePath": "D:/MTECH-BITS-PILANI/Block Chain Technologies and Systems/Assignment/contracts/VaccinationList.sol",
  "compiler": {
    "name": "solc",
    "version": "0.5.12+commit.7709ece9.Emscripten.clang"
  },
  "schemaVersion": "3.0.18",
  "updatedAt": "2021-10-25T09:55:27.184Z",
  "networkType": "ethereum",
  "devdoc": {
    "methods": {}
  },
  "userdoc": {
    "methods": {}
  }
}